022019111079999000055006TEmilio                   Hernández                Martín                   M000000000000000000N
022019111159999000091006TJesús                    Fernández                Diez                     M000000000000000000N
022019111419999000044001TEsperanza                Gómez                    Corona                   F000000000000000000S
